:100000000C9434000C943E000C943E000C943E0082
:100010000C943E000C943E000C943E000C943E0068
:100020000C943E000C943E000C943E000C943E0058
:100030000C943E000C943E000C943E000C943E0048
:100040000C943E000C943E000C943E000C943E0038
:100050000C943E000C943E000C943E000C943E0028
:100060000C943E000C943E0011241FBECFEFD8E04C
:10007000DEBFCDBF0E9440000C945C000C940000D9
:10008000259A80E490E02D9A2FEF33EC49E021503F
:1000900030404040E1F700C000002D982FEF33ECD6
:1000A00049E0215030404040E1F700C00000019796
:0C00B00051F790E080E00895F894FFCF35
:00000001FF
